S00C0000554152542E73726563DC
S113000033C0000039C0000037C0000035C0000014
S113001033C0000031C000002FC000002DC000001C
S11300202BC0000029C0000027C0000025C000002C
S113003023C0000021C000001FC000001DC000003C
S11300401BC0000019C0000017C0000015C000004C
S113005013C0000011C000000FC000000DC000005C
S11300600BC0000009C0000011241FBECFEFD8E070
S1130070DEBFCDBF22D0F9C0C3CFFC0182309105D1
S1130080A0F08330910598F080FF13C022E030E0A7
S113009005C0CF01B901C6D0892B69F02F5F3F4F4E
S11300A0E217F307B1F781E0089580E0089581E055
S11300B0089580E0089580E00895CF93DF93CDB74D
S11300C0DEB7CC57D1090FB6F894DEBF0FBECDBF53
S11300D08CE090E094D002E010E0F12CC801CDDF78
S11300E0882369F0EF2DF0E0EE0FFF1F21E030E0F0
S11300F02C0F3D1FE20FF31F11830083F3940F5F56
S11301001F4F0D3231E0130719F08DE38F1530F7CF
S11301105E019DE7A90EB11CFE0131966F01F60147
S1130120E190F1906F0197013695279536952795C3
S1130130ABE7B4E18BD0AC01569547959A01ADEC91
S1130140BCEC84D0969587959695879596958795DA
S11301509C01220F331F880F991F880F991F880F46
S1130160991F820F931F9A01281B390BC901805DC7
S113017051D09701ADECBCEC69D08C011695079574
S11301801695079516950795980160D096958795CD
S113019096958795969587959C01220F331F880F16
S11301A0991F880F991F880F991F820F931FF801B9
S11301B0E81BF90BCF01805D2DD0C801880F991F72
S11301C0000F111F000F111F000F111F080F191F1F
S11301D0C701801B910B805D1DD08CE21BD080E297
S11301E019D0CA14DB0409F09ACFFFEF24E33CE0F2
S11301F0F15020403040E1F700C000008DCF28E0EE
S11302002093C10026E02093C2009093C500809300
S1130210C4000895E0ECF0E0908195FFFDCF809359
S1130220C6000895AA1BBB1B51E107C0AA1FBB1F30
S1130230A617B70710F0A61BB70B881F991F5A956E
S1130240A9F780959095BC01CD010895A29FB001B6
S1130250B39FC001A39F700D811D1124911DB29FF6
S1110260700D811D1124911D0895F894FFCF97
S9030000FC
