S01700004763634170706C69636174696F6E312E737265635B
S11300000C9434000C943E000C943E000C943E007E
S11300100C943E000C943E000C943E000C943E0064
S11300200C943E000C943E000C943E000C943E0054
S11300300C943E000C943E000C943E000C943E0044
S11300400C943E000C943E000C943E000C943E0034
S11300500C943E000C943E000C943E000C943E0024
S11300600C943E000C943E0011241FBECFEFD8E048
S1130070DEBFCDBF0E9440000C94A4000C9400008D
S1130080CF93DF93CDB7DEB7C258D1090FB6F8943A
S1130090DEBF0FBECDBF198282E090E09B838A83CE
S11300A039C081E08C8382E090E09E838D8310C010
S11300B08A819B812D813E81B9010E949000892B08
S11300C011F41C820CC08D819E8101969E838D83C8
S11300D02D813E818A819B812817390748F38C81C1
S11300E0882399F08981882F90E0880F991F9E01B9
S11300F02F5F3F4F820F931F06962A813B81FC019D
S11301003183208389818F5F89838A819B810196D2
S11301109B838A838A819B818D32914010F2FFCF29
S1130120AA1BBB1B51E107C0AA1FBB1FA617B70719
S113013010F0A61BB70B881F991F5A95A9F7809535
S10F01409095BC01CD010895F894FFCF08
S9030000FC
