:1000000033C0000039C0000037C0000035C0000018
:1000100033C0000031C000002FC000002DC0000020
:100020002BC0000029C0000027C0000025C0000030
:1000300023C0000021C000001FC000001DC0000040
:100040001BC0000019C0000017C0000015C0000050
:1000500013C0000011C000000FC000000DC0000060
:100060000BC0000009C0000011241FBECFEFD8E074
:10007000DEBFCDBF22D054C0C3CFFC01823091057A
:10008000A0F08330910598F080FF13C022E030E0AB
:1000900005C0CF01B90130D0892B69F02F5F3F4FE8
:1000A000E217F307B1F781E0089580E0089581E059
:1000B000089580E0089580E008958CE090E009D0F4
:1000C00081E412D08FE493EC0197F1F700C00000B7
:1000D000F7CF28E02093C10026E02093C200909340
:1000E000C5008093C4000895E0ECF0E0908195FF96
:1000F000FDCF8093C6000895AA1BBB1B51E107C02A
:10010000AA1FBB1FA617B70710F0A61BB70B881FA7
:10011000991F5A95A9F780959095BC01CD01089536
:04012000F894FFCF81
:00000001FF
